{
  "contractName": "BasicVoter",
  "abi": [
    {
      "constant": true,
      "inputs": [
        {
          "name": "",
          "type": "uint256"
        }
      ],
      "name": "proposals",
      "outputs": [
        {
          "name": "name",
          "type": "bytes32"
        },
        {
          "name": "state",
          "type": "bool"
        },
        {
          "name": "totalVotes",
          "type": "uint256"
        }
      ],
      "payable": false,
      "stateMutability": "view",
      "type": "function"
    },
    {
      "constant": true,
      "inputs": [],
      "name": "storedData",
      "outputs": [
        {
          "name": "",
          "type": "uint256"
        }
      ],
      "payable": false,
      "stateMutability": "view",
      "type": "function"
    },
    {
      "inputs": [],
      "payable": false,
      "stateMutability": "nonpayable",
      "type": "constructor"
    },
    {
      "constant": true,
      "inputs": [],
      "name": "countProposals",
      "outputs": [
        {
          "name": "",
          "type": "uint256"
        }
      ],
      "payable": false,
      "stateMutability": "view",
      "type": "function"
    },
    {
      "constant": false,
      "inputs": [
        {
          "name": "name",
          "type": "bytes32"
        }
      ],
      "name": "addProposal",
      "outputs": [],
      "payable": false,
      "stateMutability": "nonpayable",
      "type": "function"
    },
    {
      "constant": false,
      "inputs": [
        {
          "name": "id",
          "type": "uint256"
        }
      ],
      "name": "getProposalState",
      "outputs": [
        {
          "name": "",
          "type": "bool"
        }
      ],
      "payable": false,
      "stateMutability": "nonpayable",
      "type": "function"
    },
    {
      "constant": true,
      "inputs": [
        {
          "name": "id",
          "type": "uint256"
        }
      ],
      "name": "getProposalName",
      "outputs": [
        {
          "name": "",
          "type": "bytes32"
        }
      ],
      "payable": false,
      "stateMutability": "view",
      "type": "function"
    },
    {
      "constant": false,
      "inputs": [
        {
          "name": "id",
          "type": "uint256"
        }
      ],
      "name": "getProposalTotalVotes",
      "outputs": [
        {
          "name": "",
          "type": "uint256"
        }
      ],
      "payable": false,
      "stateMutability": "nonpayable",
      "type": "function"
    },
    {
      "constant": false,
      "inputs": [
        {
          "name": "id",
          "type": "uint256"
        }
      ],
      "name": "getProposal",
      "outputs": [
        {
          "name": "",
          "type": "bytes32"
        },
        {
          "name": "",
          "type": "bool"
        }
      ],
      "payable": false,
      "stateMutability": "nonpayable",
      "type": "function"
    },
    {
      "constant": false,
      "inputs": [
        {
          "name": "id",
          "type": "uint256"
        }
      ],
      "name": "vote",
      "outputs": [
        {
          "name": "",
          "type": "bool"
        }
      ],
      "payable": false,
      "stateMutability": "nonpayable",
      "type": "function"
    }
  ],
  "bytecode": "0x608060405234801561001057600080fd5b50604080516060810182527f4e414d4500000000000000000000000000000000000000000000000000000000815260016020820181815260009383018481528254808401845592855292517fb10e2d527612073b26eecdfd717e6a320cf44b4afac2b0732d9fcbe2b7fa0cf6600490930292830155517fb10e2d527612073b26eecdfd717e6a320cf44b4afac2b0732d9fcbe2b7fa0cf78201805460ff191691151591909117905590517fb10e2d527612073b26eecdfd717e6a320cf44b4afac2b0732d9fcbe2b7fa0cf8909101556104939081906100ef90396000f3006080604052600436106100985763ffffffff7c01000000000000000000000000000000000000000000000000000000006000350416630121b93f811461009d578063013cf08b146100c957806306efe3b0146100ff5780632a1afcd9146101195780633373e97514610140578063429b92bf14610158578063761bbd8a146101705780639080936f14610185578063c7f758a81461019d575b600080fd5b3480156100a957600080fd5b506100b56004356101ce565b604080519115158252519081900360200190f35b3480156100d557600080fd5b506100e160043561029d565b60408051938452911515602084015282820152519081900360600190f35b34801561010b57600080fd5b506101176004356102d4565b005b34801561012557600080fd5b5061012e610385565b60408051918252519081900360200190f35b34801561014c57600080fd5b5061012e60043561038b565b34801561016457600080fd5b5061012e6004356103b5565b34801561017c57600080fd5b5061012e6103df565b34801561019157600080fd5b506100b56004356103e5565b3480156101a957600080fd5b506101b5600435610413565b6040805192835290151560208301528051918290030190f35b60006001828154811015156101df57fe5b6000918252602080832073ffffffffffffffffffffffffffffffffffffffff3316845260036004909302019190910190526040902054600114610294576001808381548110151561022c57fe5b6000918252602080832073ffffffffffffffffffffffffffffffffffffffff3316845260036004909302019190910190526040902055600180548390811061027057fe5b60009182526020909120600260049092020101805460019081019091559050610298565b5060005b919050565b60018054829081106102ab57fe5b600091825260209091206004909102018054600182015460029092015490925060ff9091169083565b604080516060810182529182526001602083018181526000928401838152825480840184559290935292517fb10e2d527612073b26eecdfd717e6a320cf44b4afac2b0732d9fcbe2b7fa0cf660049092029182015591517fb10e2d527612073b26eecdfd717e6a320cf44b4afac2b0732d9fcbe2b7fa0cf78301805460ff1916911515919091179055517fb10e2d527612073b26eecdfd717e6a320cf44b4afac2b0732d9fcbe2b7fa0cf890910155565b60005481565b600060018281548110151561039c57fe5b9060005260206000209060040201600201549050919050565b60006001828154811015156103c657fe5b9060005260206000209060040201600001549050919050565b60015490565b60006001828154811015156103f657fe5b600091825260209091206004909102016001015460ff1692915050565b60008060018381548110151561042557fe5b90600052602060002090600402016000015460018481548110151561044657fe5b600091825260209091206001600490920201015490925060ff1690509150915600a165627a7a723058208cee90da9b0d359a8322d20de9f90e8d5329e8ecc74a91c891eaf4bbd707ba140029",
  "source": "pragma solidity ^0.4.18;\r\n\r\ncontract BasicVoter {\r\n    struct Proposal {\r\n        bytes32 name;\r\n        bool state;\r\n        uint totalVotes;\r\n        mapping (address => uint) votes;\r\n    }\r\n\r\n    uint public storedData;\r\n\r\n    Proposal[] public proposals;\r\n\r\n    constructor() public {\r\n        proposals.push(Proposal({\r\n            name: \"NAME\",\r\n            state: true,\r\n            totalVotes: 0\r\n        }));\r\n    }\r\n\r\n    function countProposals() public view returns (uint) {\r\n        return proposals.length;\r\n    }\r\n\r\n    function addProposal(bytes32 name) public {\r\n        proposals.push(Proposal({\r\n            name: name,\r\n            state: true,\r\n            totalVotes: 0\r\n        }));\r\n    }\r\n\r\n    function getProposalState(uint id) public returns (bool) {\r\n        return proposals[id].state;\r\n    }\r\n\r\n    function getProposalName(uint id) public view returns (bytes32) {\r\n        return proposals[id].name;\r\n    }\r\n\r\n    function getProposalTotalVotes(uint id) public returns (uint) {\r\n        return proposals[id].totalVotes;\r\n    }\r\n\r\n    function getProposal(uint id) public returns (bytes32, bool) {\r\n        return (proposals[id].name, proposals[id].state);\r\n    }\r\n\r\n    function vote(uint id) public returns (bool) {\r\n        if (proposals[id].votes[msg.sender] != 1) {\r\n            proposals[id].votes[msg.sender] = 1;\r\n            proposals[id].totalVotes++;\r\n            return true;\r\n        }\r\n        return false;\r\n    }\r\n}",
  "sourcePath": "C:\\Users\\kusaka\\Desktop\\DrizzleBlockchainTest\\contracts\\BasicVoter.sol",
  "compiler": {
    "name": "solc",
    "version": "0.4.23+commit.124ca40d.Emscripten.clang"
  },
  "schemaVersion": "2.0.0",
  "updatedAt": "2018-05-02T09:58:39.964Z"
}