{
  "contractName": "BasicVoter",
  "abi": [
    {
      "constant": true,
      "inputs": [
        {
          "name": "",
          "type": "uint256"
        }
      ],
      "name": "proposals",
      "outputs": [
        {
          "name": "name",
          "type": "bytes32"
        },
        {
          "name": "state",
          "type": "bool"
        },
        {
          "name": "totalVotes",
          "type": "uint256"
        }
      ],
      "payable": false,
      "stateMutability": "view",
      "type": "function"
    },
    {
      "constant": false,
      "inputs": [],
      "name": "countProposals",
      "outputs": [
        {
          "name": "",
          "type": "uint256"
        }
      ],
      "payable": false,
      "stateMutability": "nonpayable",
      "type": "function"
    },
    {
      "constant": false,
      "inputs": [
        {
          "name": "name",
          "type": "bytes32"
        }
      ],
      "name": "addProposal",
      "outputs": [],
      "payable": false,
      "stateMutability": "nonpayable",
      "type": "function"
    },
    {
      "constant": false,
      "inputs": [
        {
          "name": "id",
          "type": "uint256"
        }
      ],
      "name": "getProposalState",
      "outputs": [
        {
          "name": "",
          "type": "bool"
        }
      ],
      "payable": false,
      "stateMutability": "nonpayable",
      "type": "function"
    },
    {
      "constant": false,
      "inputs": [
        {
          "name": "id",
          "type": "uint256"
        }
      ],
      "name": "getProposalName",
      "outputs": [
        {
          "name": "",
          "type": "bytes32"
        }
      ],
      "payable": false,
      "stateMutability": "nonpayable",
      "type": "function"
    },
    {
      "constant": false,
      "inputs": [
        {
          "name": "id",
          "type": "uint256"
        }
      ],
      "name": "getProposalTotalVotes",
      "outputs": [
        {
          "name": "",
          "type": "uint256"
        }
      ],
      "payable": false,
      "stateMutability": "nonpayable",
      "type": "function"
    },
    {
      "constant": false,
      "inputs": [
        {
          "name": "id",
          "type": "uint256"
        }
      ],
      "name": "getProposal",
      "outputs": [
        {
          "name": "",
          "type": "bytes32"
        },
        {
          "name": "",
          "type": "bool"
        }
      ],
      "payable": false,
      "stateMutability": "nonpayable",
      "type": "function"
    },
    {
      "constant": false,
      "inputs": [
        {
          "name": "id",
          "type": "uint256"
        }
      ],
      "name": "vote",
      "outputs": [
        {
          "name": "",
          "type": "bool"
        }
      ],
      "payable": false,
      "stateMutability": "nonpayable",
      "type": "function"
    }
  ],
  "bytecode": "0x608060405234801561001057600080fd5b5061046a806100206000396000f30060806040526004361061008d5763ffffffff7c01000000000000000000000000000000000000000000000000000000006000350416630121b93f8114610092578063013cf08b146100be57806306efe3b0146100f45780633373e9751461010e578063429b92bf14610138578063761bbd8a146101505780639080936f14610165578063c7f758a81461017d575b600080fd5b34801561009e57600080fd5b506100aa6004356101ae565b604080519115158252519081900360200190f35b3480156100ca57600080fd5b506100d660043561027e565b60408051938452911515602084015282820152519081900360600190f35b34801561010057600080fd5b5061010c6004356102b5565b005b34801561011a57600080fd5b50610126600435610365565b60408051918252519081900360200190f35b34801561014457600080fd5b5061012660043561038e565b34801561015c57600080fd5b506101266103b7565b34801561017157600080fd5b506100aa6004356103bd565b34801561018957600080fd5b506101956004356103ea565b6040805192835290151560208301528051918290030190f35b600080828154811015156101be57fe5b6000918252602080832073ffffffffffffffffffffffffffffffffffffffff331684526003600490930201919091019052604090205460011461027557600160008381548110151561020c57fe5b6000918252602080832073ffffffffffffffffffffffffffffffffffffffff331684526003600490930201919091019052604081209190915580548390811061025157fe5b60009182526020909120600260049092020101805460019081019091559050610279565b5060005b919050565b600080548290811061028c57fe5b600091825260209091206004909102018054600182015460029092015490925060ff9091169083565b6040805160608101825291825260016020830181815260009284018381528354928301845592805292517f290decd9548b62a8d60345a988386fc84ba6bc95484008f6362f93160ef3e56360049092029182015591517f290decd9548b62a8d60345a988386fc84ba6bc95484008f6362f93160ef3e5648301805460ff1916911515919091179055517f290decd9548b62a8d60345a988386fc84ba6bc95484008f6362f93160ef3e56590910155565b6000808281548110151561037557fe5b9060005260206000209060040201600201549050919050565b6000808281548110151561039e57fe5b9060005260206000209060040201600001549050919050565b60005490565b600080828154811015156103cd57fe5b600091825260209091206004909102016001015460ff1692915050565b6000806000838154811015156103fc57fe5b90600052602060002090600402016000015460008481548110151561041d57fe5b600091825260209091206001600490920201015490925060ff1690509150915600a165627a7a7230582082404f5d1fde7221f8e042d275d07edb23cf319ca5ea6f71dd19351959a22e6f0029",
  "source": "pragma solidity ^0.4.18;\r\n\r\ncontract BasicVoter {\r\n    struct Proposal {\r\n        bytes32 name;\r\n        bool state;\r\n        uint totalVotes;\r\n        mapping (address => uint) votes;\r\n    }\r\n\r\n    Proposal[] public proposals;\r\n\r\n    function countProposals() public returns (uint) {\r\n        return proposals.length;\r\n    }\r\n\r\n    function addProposal(bytes32 name) public {\r\n        proposals.push(Proposal({\r\n            name: name,\r\n            state: true,\r\n            totalVotes: 0\r\n        }));\r\n    }\r\n\r\n    function getProposalState(uint id) public returns (bool) {\r\n        return proposals[id].state;\r\n    }\r\n\r\n    function getProposalName(uint id) public returns (bytes32) {\r\n        return proposals[id].name;\r\n    }\r\n\r\n    function getProposalTotalVotes(uint id) public returns (uint) {\r\n        return proposals[id].totalVotes;\r\n    }\r\n\r\n    function getProposal(uint id) public returns (bytes32, bool) {\r\n        return (proposals[id].name, proposals[id].state);\r\n    }\r\n\r\n    function vote(uint id) public returns (bool) {\r\n        if (proposals[id].votes[msg.sender] != 1) {\r\n            proposals[id].votes[msg.sender] = 1;\r\n            proposals[id].totalVotes++;\r\n            return true;\r\n        }\r\n        return false;\r\n    }\r\n}",
  "sourcePath": "C:\\Users\\kusaka\\Desktop\\DrizzleBlockchainTest\\contracts\\BasicVoter.sol",
  "compiler": {
    "name": "solc",
    "version": "0.4.23+commit.124ca40d.Emscripten.clang"
  },
  "schemaVersion": "2.0.0",
  "updatedAt": "2018-05-01T13:22:27.743Z"
}